:100000000C9431060C944E060C944E060C9442301F
:100010000C944E060C944E060C944E060C944E0610
:100020000C944E060C944E060C941E160C94441A16
:100030000C942B270C944E060C944E060C944E06F2
:100040000C944E060C944E060C944E060C944E06E0
:100050000C944E060C94F6160C944E060C944E0618
:100060000C944E060C944E060C944E060C944E06C0
:100070000C944E060C944E060C944E060C944E06B0
:100080000C944E060C944E060C944E060C944E06A0
:100090000C944E060C944E060C944E060C944E0690
:1000A0000C944E060C944E060C944E060501090263
:1000B000A10185020901A1000509190129081500FE
:1000C0002501950875018102050109300931158165
:1000D000257F95027508810609381581257F9501D0
:1000E00075088106050C0A38021581257F95017572
:1000F000088106C0C005010980A101850319012AF4
:10010000B700150126B700950175108100C0050CD8
:100110000901A101850419012AA002150126A002E6
:10012000950175108100C005010906A1018506052C
:100130000719E029E71500250195087501810205D9
:1001400007190029EF1500250195F07501810205B9
:10015000081901290595057501910295017503910D
:1001600001C00660FF0961A1010962150026FF00B8
:100170009520750881020963150026FF00952075FA
:10018000089102C005010906A101050719E029E748
:1001900015002501950875018102950175088101F9
:1001A0000507190029FF150026FF0095067508812F
:1001B000000508190129059505750191029501753C
:1001C000039101C0000000000000000000000000DA
:1001D000000000000000000000000000000000001F
:1001E00000000000000000007E0F00D4FFFFFFC7EA
:1001F0000000007800000000000000002A2B28000A
:1002000000000000000000000000000000000029C5
:10021000000000002C1E3420212224342627252E05
:10022000362D3738271E1F2021222324252633333D
:10023000362E37381F0405060708090A0B0C0D0E69
:100240000F101112131415161718191A1B1C1D2F35
:100250003130232D350405060708090A0B0C0D0E55
:100260000F101112131415161718191A1B1C1D2F15
:100270003130354C00DA0281FFD9F1DB20A4A62E03
:10028000AF00A0C000A1C800AED580A81FD3004019
:100290008D1420007F3F1F643214643214783C1E9A
:1002A0001E140A0541646A757374005261697365AE
:1002B000004C6F7765720044656661756C74004C24
:1002C000617965723A20008081828384858687887F
:1002D000898A8B8C8D8E8F9091929394A0A1A2A3EA
:1002E000A4A5A6A7A8A9AAABACADAEAFB0B1B2B356
:1002F000B4C0C1C2C3C4C5C6C7C8C9CACBCCCDCEA1
:10030000CFD0D1D2D3D400000101010101010101FC
:1003100001020202020202020202030303030303B8
:100320000303040404040404040505050505060686
:100330000606060707070707080808080909090944
:100340000A0A0A0B0B0B0C0C0C0D0D0D0E0E0E0FEA
:100350000F0F10101111111212131314141515167A
:10036000161717181819191A1A1B1B1C1D1D1E1EEB
:100370001F2020212222232424252626272829293C
:100380002A2B2C2D2D2E2F30313232333435363767
:1003900038393A3B3C3D3E3F404142434445464765
:1003A00048494A4C4D4E4F50515354555658595A3E
:1003B0005B5D5E5F616264656668696B6C6D6F70E2
:1003C00072737577787A7B7D7E8082838587888A51
:1003D0008C8E8F91939596989A9C9EA0A2A3A5A788
:1003E000A9ABADAFB1B3B5B7BABCBEC0C2C4C6C984
:1003F000CBCDCFD1D4D6D8DBDDDFE2E4E7E9EBEE3D
:10040000F0F3F5F8FAFDFFFFAA7F554022232526D9
:1004100028292A2C2D2F3032333536383A3B3D3EB1
:100420004042434547494A4C4E5051535557595AFB
:100430005C5E6062646668696B6D6F717375777915
:100440007B7D7F81838587898A8C8E909294969814
:100450009A9C9E9FA1A3A5A7A8AAACAEAFB1B3B426
:10046000B6B8B9BBBCBEBFC1C2C3C5C6C7C9CACB7B
:10047000CCCDCED0D1D2D2D3D4D5D6D7D7D8D9D946
:10048000DADADBDBDBDCDCDCDCDCDDDDDDDDDCDCAF
:10049000DCDCDCDBDBDBDADAD9D9D8D7D7D6D5D4CC
:1004A000D3D2D2D1D0CECDCCCBCAC9C7C6C5C3C298
:1004B000C1BFBEBCBBB9B8B6B4B3B1AFAEACAAA8ED
:1004C000A7A5A3A19F9E9C9A98969492908E8C8AA1
:1004D00089878583817F7D7B79777573716F6D6B7C
:1004E0006968666462605E5C5A5957555351504E54
:1004F0004C4A4947454342403E3D3B3A3836353306
:1005000032302F2D2C2A29282625232200AF00AE99
:100510002B0014001A00080015001700E00004006A
:100520001600070009000A00E1001D001B0006007C
:1005300019000500000000000000E30000772C0017
:100540002A00130012000C0018001C0034003300B5
:100550000F000E000D000B00290038003700360098
:1005600010001100000000000000E60001772800E4
:100570002B001E001F00200021002200E0000000D0
:100580000000000000000000E1000000000000008A
:1005900000000000000000000000E30001002C004B
:1005A0002A00270026002500240023000000000068
:1005B0004F005200510050000000000000000000F9
:1005C00000000000000000000000E600010028001C
:1005D0002B001E021F02200221022202E000000066
:1005E0000000000000000000E1000000000000002A
:1005F00000000000000000000000E30001002C00EB
:100600002A00270226022502240223023500310097
:1006100030002F002E002D003502310230022F0253
:100620002E022D02000000000000E600010028005C
:10063000007C00000000000000000000207823780B
:1006400025782778000000002178247826782878FB
:1006500000000000000000000000E30001002C008A
:10066000000000000000000000000000000000008A
:10067000000000000000000000000000000000007A
:1006800000000000000000000000E600010028005B
:1006900009025B00030100A0FA0904000001030144
:1006A0000100092111010001224000070581030812
:1006B00000010904010002030000000921110100EA
:1006C0000122220007058203200001070503032001
:1006D00000010904020001030000000921110100CA
:1006E0000122B60007058403200001120100020068
:1006F000000008534601000100010200010C034301
:10070000006F0072006E0065000000100366006F4D
:10071000006F007300740061006E000000040309A4
:10072000040000000000003E5B4F5B3E003E6B4F4C
:100730006B3E001C3E7C3E1C00183C7E3C18001C9E
:10074000577D571C001C5E7F5E1C0000183C180083
:1007500000FFE7C3E7FF00001824180000FFE7DBF5
:10076000E7FF0030483A060E002629792926004086
:100770007F05050700407F05253F005A3CE73C5AAE
:10078000007F3E1C1C0800081C1C3E7F0014227FBA
:100790002214005F5F005F5F0006097F017F000099
:1007A0006689956A0060606060600094A2FFA29410
:1007B0000008047E04080010207E20100008082A8B
:1007C0001C0800081C2A0808001E10101010000C3D
:1007D0001E0C1E0C0030383E383000060E3E0E0651
:1007E0000000000000000000005F000000000700A3
:1007F000070000147F147F1400242A7F2A1200238C
:1008000013086462003649562050000008070300B0
:1008100000001C224100000041221C00002A1C7F15
:100820001C2A0008083E08080000807030000008FC
:10083000080808080000006060000020100804029A
:10084000003E5149453E0000427F40000072494948
:100850004946002141494D33001814127F100027EA
:1008600045454539003C4A494931004121110907B4
:1008700000364949493600464949291E00000014FE
:100880000000000040340000000008142241001461
:10089000141414140000412214080002015909061E
:1008A000003E415D594E007C1211127C007F494987
:1008B0004936003E41414122007F4141413E007F97
:1008C00049494941007F09090901003E41415173ED
:1008D000007F0808087F0000417F41000020404160
:1008E0003F01007F08142241007F40404040007FCC
:1008F000021C027F007F0408107F003E4141413E00
:10090000007F09090906003E4151215E007F091957
:1009100029460026494949320003017F0103003F6F
:100920004040403F001F2040201F003F4038403FD4
:100930000063140814630003047804030061594938
:100940004D4300007F414141000204081020000097
:100950004141417F00040201020400404040404008
:10096000000003070800002054547840007F28440A
:10097000443800384444442800384444287F003830
:10098000545454180000087E0902001824241C78CE
:10099000007F080404780000447D400000204040AF
:1009A0003D00007F102844000000417F4000007C93
:1009B00004780478007C08040478003844444438FF
:1009C000007C1824241800182424187C007C0804B7
:1009D00004080048545454240004043F4424003CB8
:1009E0004040207C001C2040201C003C4030403C0B
:1009F000004428102844004C9090907C004464549B
:100A00004C44000008364100000000770000000060
:100A100041360800000201020402003C2623263C65
:100A200000000000000000000000000000000000C6
:100A300000C0E0F0F8F81800C0F0FCFEFFFFFFFF78
:100A4000FFFFFF7E00000000000000000080C0E00B
:100A5000E0E0E0E0E0E0E0C0800000000080C0E016
:100A6000E0E0E0E0E0E0E0C080000000E0E0C0C0E6
:100A7000E0E0E0E00000E0E0C0C0E0E0E0E0E0C096
:100A8000800000000080C0E0E0E0E0E0E0E0E0C0E6
:100A9000800000000000000000000000000000E0F6
:100AA000F0F0F0E0ECEEF7F37020007C7C7C7E0050
:100AB0007E7E7E7F7F7F000080C0E07E5B4F5BFE9E
:100AC000C00000C000DCD7DEDEDED7DC00C00000E6
:100AD0000000000000000000000000000000000016
:100AE00000000000000000000000F8FCFEFFE00035
:100AF000FFFFFFFFFFFF80FFFFFFFFFFFFFFFFFF85
:100B00001F0701000000000000000000FFFFFF8140
:100B100000000000000081C3C3C30000FFFFFF818D
:100B200000000000000081FFFFFF0000FFFFFF0149
:100B3000000000000000FFFFFF010000000001FFB7
:100B4000FFFF0000FFFFFF9D1C1C1C1C1C1C9DDFE9
:100B5000DFDF000000000000000000000000000FC8
:100B60001F3F7F7F7F7F7F3F1E0C001F1F1F3F00A7
:100B70003F3F3F7F7F7F00307B7F78302020307881
:100B80007F3B0003000F7F0F0F0F7F0F000300005C
:100B90000000000000000000000000000000000055
:100BA00000000000000000000000030F1F3F3F3F57
:100BB0003F1F1F3F3F7F7F7F3F3F1F3F7F7F7F7FE5
:100BC0007C7878381C0F000000000000000103074B
:100BD00007070707070707030100000000010307D5
:100BE00007070707070707030100000007070700BB
:100BF00000000000000007070700000000000007D9
:100C00000707000000010307070707070707070397
:100C100001000000000000000000000000000000D3
:100C200000000000000000000000000000000000C4
:100C300000000000000000000000000000000000B4
:100C400000000000000000000000000000000000A4
:100C50000000000000000000000000000000000094
:100C6000000011241FBECFEFDAE0DEBFCDBF12E0DF
:100C7000A0E0B1E0E0EAFBE602C005900D92AA30E8
:100C8000B107D9F726E0AAE0B2E001C01D92AB336C
:100C9000B207E1F70E9452270C9458350C940000DB
:100CA000FC01AC014C5F5F4F8FEF91E321918227F4
:100CB00028E030E087FF09C0880F892721503109DB
:100CC000C9F7E417F50791F70895880FF7CFE8ED16
:100CD000F0E080818E7F80831092E2001092DA0033
:100CE0001092E100A0EEB0E08C9181608C93808145
:100CF0008F77808319BCA7EDB0E08C918E7F8C93A9
:100D000080818F7E80831092FD0308952091E400FE
:100D10003091E50095E6A9012091EC00822F8170C9
:100D200020FF06C08091E80080FF06C080E00895A3
:100D30002091E80022FD1AC080912204882389F0C6
:100D4000853089F08091EB0085FD0FC02091E40093
:100D50003091E50042175307F9F29150E1F684E033
:100D6000089582E0089583E0089581E008958091D8
:100D7000240487FF13C08091E80082FF06C08091A1
:100D8000E8008B778093E80004C0809122048111F1
:100D9000F2CF0895809122048823D9F38091E8004E
:100DA00080FFF8CF8091E8008E77ECCF982F90935A
:100DB000E900242F762F50E0891731F07091EC0074
:100DC0002091ED005091F00021FD07C09F5F97300A
:100DD00071F78093E90081E008953091EB003E7F48
:100DE0003093EB003091ED003D7F3093ED0030917A
:100DF000EB0031603093EB007093EC002093ED003A
:100E00005093F0002091EE0027FDE0CF80E00895A0
:100E1000B0E0A0E0EEE0F7E00C947D31C8EDD0E06A
:100E200088818F7E8883E7EDF0E080818160808318
:100E300084E082BF81E08093FD0388818E7F888378
:100E400002EE10E0F80110821092DA0081EEC82E56
:100E5000D12CF601108288818F7788838881806801
:100E6000888388818F7D888319BC10922204109218
:100E70002304109221041092200490EEE92EF12C0C
:100E8000F70180818B7F808388818160888342E045
:100E900060E080E00E94D606F60180818E7F80832C
:100EA000F801808181608083808188608083F70180
:100EB00080818E7F8083888180618883CDB7DEB713
:100EC000E8E00C949931FC01CB0120912A04309187
:100ED0002B042617370790F0009729F42091E8009B
:100EE0002E772093E80040E0009751F4411108C0AC
:100EF0008091E80082FF31C080E00895C901F3CFFE
:100F0000209122042223A9F12530A9F12091E800A3
:100F100023FD2DC02091E80022FDEACF2091E800BA
:100F200020FFE2CF3091F3002091F200009719F0FA
:100F30002830310558F041E02830310509F040E013
:100F40002091E8002E772093E800CECF4191409386
:100F5000F10001972F5F3F4FE9CF80912204882352
:100F600041F0853041F08091E80083FFC1CF81E0FE
:100F7000089582E0089583E008958091FF03089525
:100F800087E797E7909301088093000888E19AE04B
:100F90000FB6F894A895809360000FBE9093600000
:100FA000FFCFA4E0B0E0E7EDF7E00C9483318FB71A
:100FB000F8942091F7033091F8034091F903509190
:100FC000FA0329833A834B835C838FBF69817A81DB
:100FD0008B819C812496E2E00C949F319C0180914E
:100FE00043018823C9F08091FB0387FF15C0E62FDA
:100FF000E695E695E695603FE0F4E20FF32FF11DEC
:10100000677081E090E001C0880F6A95EAF78095EB
:101010009281892382830895F9013296285F3F4F98
:101020008191681303C0DF0111971C92E217F30747
:10103000B9F708959C01809143018823C1F0809104
:10104000FB0387FF14C0E62FE695E695E695603F23
:10105000F8F4E20FF32FF11D677021E030E001C0DA
:10106000220F6A95EAF78281822B82830895F90123
:1010700032968FEF90E04191641751F08F3F19F451
:10108000411101C0892F9F5F9630A9F78F3F09F466
:101090000895280F311D87FD3A95F901628308955F
:1010A000A3E0B0E0E6E5F8E00C9483319C01809188
:1010B000F4039091F50382179307A1F03093F503A1
:1010C0002093F403E091F203F091F303309751F091
:1010D00084E089833B832A830680F781E02DCE015B
:1010E000019609952396E2E00C949F31A3E0B0E0CD
:1010F000ECE7F8E00C9483319C018091F00390912F
:10110000F10382179307A1F03093F1032093F003CA
:10111000E091F203F091F303309751F083E089837B
:101120003B832A830680F781E02DCE010196099545
:101130002396E2E00C949F31FA01882311F009957F
:101140000895FB01FCCF0895EEE3F3E01182828164
:101150008460828308958091E503982F9E7F61F4D7
:10116000817082608093E5038091E803893718F0ED
:1011700088E78093E80308958634B0F3817084642F
:10118000F1CFB0E0A0E0E7ECF8E00C947931D82E94
:10119000C62EE901E42FF0E0E95FFC4F61110BC0BE
:1011A0004491942FE42FE98348839A83CDB7DEB727
:1011B000ECE00C949531062F10E0E49186E0D89E87
:1011C000700111242FEF30E0C701B9010E945F3197
:1011D0008D2D90E0880F991FF5E5F69FA001F79FF0
:1011E000500D1124841B950B982F990F890FA9017D
:1011F000401B510BE49FD001E59FB00D11244B2FF4
:10120000C89E60011124CD2CDD245901AC18BD0805
:10121000EA9D6001EB9DD00C11249D2D4901881A97
:101220009108809E5001819EB00C909EB00C1124BC
:10123000AB2CBB242A193B09E29F8001E39F100DD0
:10124000112463307105D1F08CEFE81683E0F806C5
:1012500070F461307105B1F062307105B9F08FEF53
:10126000E816F10408F09FCF9B2F412F9CCF6430EC
:10127000710579F066307105B9F395CF4D2D9E2F2C
:10128000EB2F91CF4E2FED2D9B2F8DCF912F4E2FEA
:10129000F7CF9E2FE12F87CF80912D0380FD16C0C1
:1012A00081FD16C082FD16C080912C038823A1F019
:1012B000883280F428E0829FC001112468E270E047
:1012C0000E94C431862F672B39F0089582E008957B
:1012D00084E0089588E0089581E0089580912D03C9
:1012E00080FD14C081FD14C082FD16C080912B03C7
:1012F000882381F08E3180F420E5829FC001112483
:101300006EE170E00E94C431862F089584E1089553
:1013100088E2089588E0089580E5089580E00895C2
:10132000F894E82FE295EF70F0E041A18F7021E092
:1013300030E0B90102C0660F771F8A95E2F7CB0152
:10134000962F9095942391A392A1892B82A37894B0
:1013500008959091FB0392FF06C0282F2871283032
:10136000F9F4877F846093FF06C0282F2871283105
:10137000F1F4877E84612091FC0320FF06C0382FA2
:1013800038713830D9F4877F816021FF06C0282F5B
:1013900028712831D1F4877E816194FD877E08957C
:1013A000282F24712430F9F68B7F8860DCCF282F1A
:1013B0002471243101F78B7E8861DDCF382F3171A4
:1013C000313019F78E7F8860E0CF282F21712131CD
:1013D00021F78E7E8861E1CFCF93DF93EC01803ED1
:1013E000910509F475C088F58133910509F4B2C0FF
:1013F00090F48932910509F4A2C08A9709F4B1C02A
:10140000C130D10509F477C0CE010497813A910526
:1014100008F06AC070C08933910509F44DC0823864
:10142000910509F449C08533910509F483C08D3CC9
:10143000910508F01CC1883A910508F099C0853AD9
:101440009105F0F2A497D06456C0843E910509F44A
:1014500061C000F5823E910509F449C0833E9105C3
:1014600009F44DC0C11522E5D20708F0A8C0C11586
:1014700030E5D30708F48CC08C2F8F710E94A90926
:1014800035E0D695C7953A95E1F7CF70DC2FC82F98
:10149000D06931C0863E910509F447C0873E910569
:1014A00009F78091FB0383FD1DC19091FC0391FF1F
:1014B0002EC0C4EED0E01FC08091FB03837009F002
:1014C0000EC18091FC0383FF16C0C9E2D0E013C0B7
:1014D0008091FB0380FD3BC09091FC0390FF0BC00B
:1014E000C3EED0E084FF07C0D0E0C0E004C080912C
:1014F000FB0382FDF5CFCE01DF91CF91089580915E
:10150000FB0382FDE9C09091FC0390FDE8C084FFDD
:10151000F2CFEACF8091FC0381FFEDCF8091FB03F6
:10152000C7EED0E084FDE0CFE6CF8091FB0383FDE2
:10153000F7CFE1CF8091FB0385FFDDCFC6CF809150
:10154000FB0385FDD2C08091FC0383FFD4CFC9E3A8
:10155000D0E0D1CF8091FB0386FFCDCFCAE2D0E0AF
:10156000CACF8091FB0386FFC6CFC1E3D0E0C3CFD3
:10157000885A9109499708F0B7CFC85AD0E0CC0FE4
:10158000DD1FCF56DE4F0990D881C02DD464B3CF74
:10159000C11540E4D40780F4C11580E2D80708F0F3
:1015A0008EC0C83ED10508F4A6CFCE019A9581150C
:1015B0009F4108F4A0CF98CFDF70D06A9CCFC0388D
:1015C00032E5D307B8F5C03642E5D40708F058C075
:1015D000C03482E5D807C8F4C03292E5D90708F0D4
:1015E00048C02C2F2695269540E2249F9001112477
:1015F0008C2F8370C1E0D0E002C0CC0FDD1F8A9534
:10160000E2F7C22BD32BDD6876CF2C2F26952695BB
:10161000277080E2289F900111248C2F8370C1E0F5
:10162000D0E002C0CC0FDD1F8A95E2F7C22BD32B8E
:10163000DC6861CFC03C92E5D90760F48C2F8F71D4
:10164000C03AD24590F5C82FD0E0DC2FCC27C46F2C
:10165000D06A51CFCE01805C9245809708F044CF8C
:10166000DC2FCC27CC27DF71C06FD06A44CFD06588
:1016700042CFCF71D0E0DC2FCC27C16FD06A3BCFF7
:101680002C2F26952695277040E2249F9001112447
:101690008C2F8370C1E0D0E002C0CC0FDD1F8A9593
:1016A000E2F7C22BD32BDA6826CF0E94A909C82FF4
:1016B000D0E0DC2FCC27CC27DF71D0621CCF8D2F60
:1016C0008F710E94A90990E0982F882788279F7121
:1016D0009C012C2BE901F1CFC2EED0E00CCFC0EE83
:1016E000D0E009CFC6EED0E006CFC5E3D0E003CF0F
:1016F00080919A02811110929A020895982F9095E4
:1017000080919902892380939902089580917602AD
:1017100090914502981301C008958F5F8770FACFAA
:10172000292F983078F5863068F590E036E0239FD1
:10173000800D911D1124682F677023E09695879581
:101740002A95E1F7FC01EE0FFF1FE80FF91FE35D9B
:10175000FD4F50E040E080E0219130E0062E02C0D5
:10176000369527950A94E2F721703327042E01C09D
:10177000220F0A94EAF7822B4F5F5F4F43305105E7
:1017800059F7089580E00895292F983090F5863014
:1017900080F590E036E0239F800D911D1124282FC5
:1017A000277041E001C0440F2A95EAF723E096959F
:1017B00087952A95E1F7FC01EE0FFF1FE80FF91F4F
:1017C000E35DFD4F90E080E070E05191DF01119703
:1017D0009B01082E02C0369527950A94E2F72170E6
:1017E00021952527242325272C93019683309105C5
:1017F00061F7089580932F04089580912F04982F06
:101800009670963021F488600E94FA0B0895877FC5
:10181000FBCF21E030E001C0220F8A95EAF7209546
:1018200080912F0482230E94FA0B089590917702F1
:101830008095892380937702282F277091F4282F91
:10184000082E000C330B9217130659F09091FC03ED
:1018500092FF07C08595859585950E94090C109289
:101860007702089521E030E001C0220F8A95EAF75F
:1018700080912F04822B0E94FA0B089580939B0283
:101880000895CF93DF93682F81E06A3019F06D30AF
:1018900031F480E00E94CF0CDF91CF9108958091C8
:1018A000390690913A0626E0FC01A3E3B6E00190E8
:1018B0000D922A95E1F7603E08F458C026E0FC013D
:1018C00011922A95E9F7C0913906D0913A0646E07F
:1018D00050E0BE0183E396E00E944E329E01235306
:1018E0003440892B41F1C90145E0969587954A9589
:1018F000E1F741E050E0BA0102C0660F771F8A9518
:10190000E2F7CB016091310470913204862B972B62
:10191000B9016B5F7F4FE5E076956795EA95E1F752
:1019200002C0440F551F6A95E2F7842B952B9093C4
:101930003204809331042A5F3F4F40913004642F7A
:1019400070E0C9010E945F31481B463010F4240F3B
:10195000311D211572E0370710F030E020E02D5CDA
:101960003B4F30933A062093390696CFF6E06F9FAF
:10197000B00111246F5D784F46E050E00E9438328C
:10198000A2CFCF93DF93EC01FE018491811103C0BC
:10199000DF91CF9108950E94410C2196F5CFCF930E
:1019A000382FE0913906F0913A06E353F440209144
:1019B0003004622F70E0CF010E945F31281B822F1C
:1019C000332361F066E00E94AA31C82FC15010F4A1
:1019D000CF91089580E20E94410CF8CF9F01280F1B
:1019E000311D2115324018F080E0F0E0E0E08E0F6C
:1019F0009F2F911D8D5C9B4F90933A0680933906E3
:101A0000E7CF8091990290919802892B80930C02E4
:101A100090919A029923A1F0892B80930C028091D6
:101A200043018823E1F18091FB0387FF38C08EE1F9
:101A3000EEE0F2E090E08150A0F591110E94780B69
:101A400040E250E068E772E08CE092E00E944E32A3
:101A5000892B21F180E2ECE0F2E0A8E7B2E001900E
:101A60000D928A95E1F7E091F203F091F30330973C
:101A7000A9F080914301882359F08091FB0387FFEF
:101A800007C080910C0280930D0286E080930C02C7
:101A90000280F381E02D8CE092E00995089586E0C4
:101AA000C7CF2191222339F29F5FC5CF882321F030
:101AB0000E947E0B0E94010D0895882339F09091B9
:101AC0009902892B809399020E94010D0895B0E03C
:101AD000A0E0EDE6FDE00C947D316C017B0164E655
:101AE00070E088E70E94AC2EEC0197FD12C010E078
:101AF00000E0F601E00FF11F849164E670E00E94BF
:101B00001C2FEC01892B29F40F5F1F4F0E151F05A9
:101B100081F70E949E2FCE01CDB7DEB7E8E00C948E
:101B200099318091EE039091EF03911103C091E000
:101B300089270895882369F062E070E08EE095E0DF
:101B40000E94670D892B19F08091EE030895109281
:101B5000EE038091EE03EBCFA5E0B0E0E2EBFDE019
:101B60000C9483318091EE038D838091EF03882361
:101B7000F1F00E94D107DC01CB01805A9541AF4FB3
:101B8000BF4F8093EA039093EB03A093EC03B093D1
:101B9000ED038D81811108C062E070E08CE095E07A
:101BA0000E94670D892B41F08091EE038D838D811A
:101BB0002596E2E00C949F3181E08093EE03F4CF10
:101BC0000F931F93CF93DF938B01EA01909122042F
:101BD000943061F58093E9008FEF9091E800815097
:101BE00095FD06C095ED9A95F1F700008111F5CFAE
:101BF0008091E80085FF1AC00E948606811111C0FD
:101C00008091E80085FD06C08091E8008E77809382
:101C1000E800F2CFF80181918F018093F1002197C4
:101C200079F78091E8008E778093E800DF91CF917B
:101C30001F910F910895BC0143E050E084E00E94A1
:101C4000E00D0895BC0146E050E084E00E94E00D04
:101C50000895CF93DF93D82FC92F8091430181112D
:101C600013C048E050E06D2F792F81E00E94E00D15
:101C700080E2ED2FFC2FA0E0B4E001900D928A9558
:101C8000E1F7DF91CF9108958091FB0387FF06C0B4
:101C900040E284E050E06D2F7C2FE8CF48E081E007
:101CA000F9CF60913F018091E50380FF20C08091D2
:101CB0003E0143E0849FC00111248D5B9C4F539AE9
:101CC0002BB1277F3BB138605FB7F894FC01649F6C
:101CD000E00DF11D1124BF0168177907D1F45FBF32
:101CE0008FE594E00197F1F700C00000089580911E
:101CF00040019091410123E0829FF0011124ED5BAE
:101D0000FC4F8917A0F61182108212828F5F3396E2
:101D1000F8CFFC014191CF01E8E03BB9000000C0E1
:101D200047FF2BB9440F000000C000C000C02BB912
:101D300000C0EA9591F7D0CFAEE0B0E0E2EAFEE075
:101D40000C947F318D879E87AD85BE8514961C913E
:101D5000212F30E0D9010E940F329B01AC010E947B
:101D6000253269837A838B839C83E0E2F0E0E11B78
:101D7000F109A5E5B0E09B01AC010E94253269871D
:101D80007A878B879C879F01DF010E9407326D83D2
:101D90007E838F8398879B01AC010E9430329B0128
:101DA000AC0169817A818B819C81260F371F481F86
:101DB000591F69857A858B859C850E94D831F22EC2
:101DC000822F90E079E2721740F183E0289F900122
:101DD000112435952795122F109500E085E5E82E02
:101DE000EF1880914201081738F10E94510EAD851D
:101DF000BE8514969C9181E0992319F0903219F4D4
:101E00008FEF80933D0180913D01890FED85FE8527
:101E100084832E96E6E00C949B3125E530E0D901D1
:101E2000A81BB90B9D01220F331F2A0F3B1F37FF41
:101E3000D0CF2F5F3F4FCDCF8E2D01FD8F2D209125
:101E40004001E22FE00FFF27FF1F9F01220F331FEA
:101E50002E0F3F1F2D5B3C4F412F193708F048E7ED
:101E60006091E7030E94C1080F5FBBCFCF92DF9262
:101E7000FF920F931F93CF93DF93EC018C8181111D
:101E800009C081E08C831092420392E090933C0160
:101E900080933B01109140019091410183E0189F94
:101EA000F0011124ED5BFC4F812F891778F100E0E0
:101EB00093E0F92E60914201061770F10E94510ED5
:101EC00080913B0120914203280F2093420390917F
:101ED0003C01980F90933C01191654F4022E000C0B
:101EE000330B409142014150550B2417350734F014
:101EF000819580933B01813009F41C82DF91CF9161
:101F00001F910F91FF90DF90CF9008951182108262
:101F100012828F5F3396C9CFC02ED12C70E0C601DC
:101F20000E94C431810F482F50E020914203022EBD
:101F3000000C330BC216D306D4F020913C01022EC4
:101F4000000C330B2C153D0594F08F9D900111244E
:101F50002D5B3C4F4091E803493708F048E760911A
:101F6000E7038091E6030E94C1080F5FA3CFFA0147
:101F7000EE0FFF1FE40FF51FED5BFC4F1182108287
:101F80001282F3CFB0E0A0E0E8ECFFE00C947A31ED
:101F9000EC018A81BB24BA9480FD02C0BB24B394B7
:101FA000A09042018C81811109C081E0B8121EC04D
:101FB0008FEF8A0D8093410381E08C83F12CE12C1B
:101FC000EA14B8F00E94510E8091410391E0B912D9
:101FD0005AC0811153C080914201815080934103C6
:101FE0001C82CDB7DEB7EBE00C9496311092410322
:101FF000E3CF009140010E0D1F2D111DC801880F68
:10200000991F080F191F0D5B1C4FF80111821082D8
:10201000128234E0C32ED12C912C80914103890D82
:10202000873344F166E30E94B631892F082E000CF5
:10203000990B8E159F05A9F48091E8038C9DA00152
:102040008D9D500D112455954795559547954937C8
:1020500008F048E798016091E7038091E6030E9449
:10206000C1089B0CF1E0CF1AD108B9F68FEFE81A3E
:10207000F80AA6CF87FFDACF8A0DD8CF8150809398
:102080004103BC82AECF90E001966091420170E0C6
:102090000E94C431809341038C83A3CFEF92FF92BF
:1020A0001F93CF93DF93EC0110E0EE24EA94F12C20
:1020B00060914201161770F00E94510E9A818C8136
:1020C00090FF2AC08F5F8C83DF91CF911F91FF908B
:1020D000EF90089520914001422F410F5527551F41
:1020E000CA019A01220F331F280F391F2D5B3C4F65
:1020F0004091E803493708F048E770E0C7010E94C3
:10210000C431962F8C816091E703199F800D1124B3
:102110000E94C1081F5FCCCF8150D5CF9091E503BD
:1021200090FF0EC0909140012091410133E0939FB8
:10213000F0011124ED5BFC4F921718F00E94510E34
:1021400008958183608342839F5F3396F5CFA3E038
:10215000B0E0EDEAF0E10C9483319091E50390FF5B
:102160000DC0493708F048E79E012F5F3F4F0E949E
:10217000C1084B8169818A810E948E102396E2E01A
:102180000C949F31CF93DF93EC01E5EEF3E04381B4
:1021900062818C810E94A7108C818F5F8C83DF917C
:1021A000CF910895CF93DF93EC01EC81F0E0E45FF1
:1021B000FB4F4491E5EEF3E0628181810E94A7101C
:1021C0008C818F5F8C83DF91CF910895E5EEF3E0F2
:1021D00080818E7F80830E94A408EEE3F3E08281F9
:1021E000816082830E94510E0895B0E0A0E0EBEF81
:1021F000F0E10C947B31F82EE92ED62EC72E8A0101
:102200008091C802AA24A394B12C8A3018F48AE0E1
:10221000A82EB12CC1E0D0E06D2D7C2D8F2D9E2DF0
:10222000F8010995811104C02196AC16BD062CF465
:10223000CDB7DEB7EAE00C949731CC9F9001CD9FEB
:10224000300D300D112490E080E045E34A95F1F720
:102250000000019682179307C1F7DECF8091A60296
:10226000811110C08091D80080618093D8008AE1EC
:102270008A95F1F700C08091D90080FF0AC081E003
:102280008093A60281E09091A602913009F080E04F
:10229000089582E08093A6020E94670610922204AD
:1022A000F1CF0E942E11882359F0E091F203F091B2
:1022B000F303309729F00190F081E02D09950895FE
:1022C00080E00895A4E0B0E0E8E6F1E10C94833109
:1022D0000E942E11882371F00E94D10769837A83AE
:1022E0008B839C8369817A818B819C812496E2E037
:1022F0000C949F310E94D10769837A838B839C83DE
:102300008091C9029091CA02A091CB02B091CC02F7
:1023100029813A814B815C81280F391F4A1F5B1F3D
:1023200029833A834B835C83DDCFCF93DF93C6EA67
:10233000D1E060E0CE010E9424352196C11584E0F1
:10234000D807B9F7DF91CF9108951F93CF93DF930B
:10235000962F122F632F8430D8F49830C8F446306B
:10236000B8F4C42FD0E0CC0FDD1F2CE0929FC00D3D
:10237000D11D112490E6899FC00DD11D1124CE01DD
:1023800086960E942435612FCE0187960E942435BF
:10239000DF91CF911F910895AF92BF92CF92DF92BC
:1023A000FF920F931F93CF93DF93B12CA12C00E0EA
:1023B000650110E013C0FE01259134914F2D612F6E
:1023C000802F0E94A5112296F39486E0F812F3CF95
:1023D00086E0C80ED11C1F5F183039F0E601CC0F23
:1023E000DD1FC05FDA4FF12CE6CF0F5F80E3A80E50
:1023F000B11C0430E9F6DF91CF911F910F91FF904E
:10240000DF90CF90BF90AF900895CF93C82F6FEF1C
:10241000811163E282E290E00E9424356FEFC111E6
:1024200061E083E290E00E9424356FEFC11162E227
:1024300084E290E00E942435CF91089580E00E94CC
:10244000051260E085E290E00E9424350E94CC11E4
:102450000E94951181E00E94051208950F931F9329
:10246000CF93DF93843030F5683020F5463010F597
:10247000C42FD0E0CC0FDD1F2CE0629FC00DD11D1A
:10248000112430E6839FC00DD11D1124CE01869604
:102490000E941035082F10E0102F0027CE018796DC
:1024A0000E9410359801282BC901DF91CF911F910F
:1024B0000F91089590E080E0F8CF462F672F783095
:1024C00038F4463028F4843018F40E942E1208950F
:1024D00080E090E00895B0E0A0E0E1E7F2E10C9444
:1024E0007E317C0100912F0480919B02082BC7E074
:1024F000D0E010E0DC2EC8010C2E02C09595879527
:102500000A94E2F780FD09C02197A0F7D12C8D2D08
:10251000CDB7DEB7E7E00C949A31B7018C2F0E945B
:102520005D120E94EC09019779F3F1CFCF93DF930D
:10253000D82FC92F0E946B126D2F7C2F0E945D1225
:102540000E94EC09DF91CF910895FC018381948171
:10255000892B29F08081918189238F3F69F480E064
:102560000895243FE1F71CC081E0283E20F0213F80
:10257000B1F716C008950895808191810E94961246
:10258000282F92959F70963079F358F4925F9F7040
:10259000923028F781E0203F69F318F7283EF8F6DB
:1025A00008959A5FF4CF82E290E00E941035833262
:1025B00089F483E290E00E941035813059F484E27E
:1025C00090E00E94103591E0823209F090E0892F6E
:1025D0008170089580E0FCCF0F931F93CF93DF931A
:1025E0008B01D82FC92F0E94AB08A8016D2F7C2F1B
:1025F00088E090E00E943635DF91CF911F910F91D6
:102600000895A7E0B0E0E7E0F3E10C947C31F82E08
:10261000E62E042FC22E9091E50390FF3FC020913B
:10262000E603281308C08091E703861304C0809155
:10263000E803841729F0809140038260809340036F
:10264000E92FE695AE2FB0E0A952BE4F8C91809352
:102650003E039E7F923031F5402F093708F048E75E
:102660009E012F5F3F4F6E2D8F2D0E94C1084B8121
:1026700069818A810E948E10F092E603E092E7035E
:102680000093E803CC2051F06091E5037091E603DC
:102690008091E7039091E8030E94EC122796E9E00D
:1026A0000C949831823019F40091E803E5CF86301C
:1026B000B9F18930A9F18931F9F6E9516E2F6170CC
:1026C000B62EE695F0E0E95FFB4F1491D12C6091B6
:1026D0004201D61618F00E94510ECECFD19EC001F5
:1026E000112470E00E945F318F2DB11017C0860F4A
:1026F00020914001A22FAD0DBB27BB1F9D01220FD2
:10270000331F2A0F3B1F2D5B3C4F402F093708F02A
:1027100048E76E2D0E94C108D394D9CF861BE8CF1D
:10272000F22EAACFE5EEF3E0438121E1421B08F44B
:1027300040E021E0628181810E9401130895E5EE6D
:10274000F3E0438121E1420F08F44FEF21E0628181
:1027500081810E9401130895E5EEF3E0628121E199
:10276000621B08F460E021E0438181810E94011333
:102770000895E5EEF3E0628121E1620F08F46FEF66
:1027800021E0438181810E9401130895E5EEF3E089
:10279000818121E0438162818A500E940113089562
:1027A000E5EEF3E0818121E043816281865F0E9452
:1027B00001130895A4E0B0E0E0EEF3E10C9483315E
:1027C0008091E903882319F081508093E903809177
:1027D000E5039091E603A091E703B091E803BC0103
:1027E000CD010E94EC122496E2E00C949F31A4E00B
:1027F000B0E0EDEFF3E10C9483318091E903833095
:1028000018F48F5F8093E9038091E5039091E603CC
:10281000A091E703B091E803BC01CD010E94EC1246
:102820002496E2E00C949F31A4E0B0E0EAE1F4E108
:102830000C948331E5EEF3E083E0808311828FEF27
:10284000828388E783831482AEE3B3E012968C918F
:102850001297836012968C9380819181A281B381BB
:10286000BC01CD010E94EC122496E2E00C949F3151
:1028700067EE7EEF90E080E00E94423560E082E00B
:1028800090E00E94243560E083E090E00E942435CF
:1028900010929B0260E074E184E090E00E94423577
:1028A00060E086E090E00E9424356FEF87E090E0E2
:1028B0000E94243540E050E0BA0188E090E00E9498
:1028C000363560E08DE090E00E94243540E050E035
:1028D000BA0188E190E00E94363560E087E190E03F
:1028E0000E94243540E050E0BA018CE190E00E9463
:1028F000363570E060E080E290E00E94423540E0D2
:1029000050E0BA0188E190E00E94363580E00E94F4
:1029100005120E941E1240E050E0BA018FE090E0E4
:102920000E94363540E050E0BA0183E190E00E9419
:10293000363508959091FC0392FB222720F9281741
:1029400079F080FB92F99093FC036091FB03709106
:10295000FC0384E090E00E94423582E00E94160C65
:10296000089590E080E00E941E35873E9E4F19F446
:102970000E94D312089580E00895A8E0B0E0E3EC4F
:10298000F4E10C9482314091AF025091B002609119
:10299000B1027091B2022FB7F8948091F703909131
:1029A000F803A091F903B091FA032FBF841B950B94
:1029B000A60BB70B11E084369105A105B10578F19E
:1029C0000E946211DC01CB010296A11DB11D898319
:1029D0009A83AB83BC8380911101909112018D5435
:1029E0009D4F20911001422F50E0253010F044E01F
:1029F00050E0BE016F5F7F4F0E945B3282E090E04B
:102A00000E94E930182F882351F00E94D10760936B
:102A1000AF027093B0028093B1029093B202812F03
:102A20002896E3E00C949E31A8E0B0E0EAE1F5E1FD
:102A30000C94833185E0E5EEF3E0DE011196019020
:102A40000D928A95E1F780913E0390913F03A0910A
:102A500040038E839F83A88728854091C4025091AC
:102A6000C5026091C6027091C7023FB7F894809189
:102A7000F7039091F803A091F903B091FA033FBFD7
:102A8000841B950BA60BB70B84369105A105B105E8
:102A900010F4222319F18091190190911A018D549B
:102AA0009D4F20911801422F50E0293010F048E04E
:102AB00050E0BE016F5F7F4F0E945B3283E090E089
:102AC0000E94E930882369F00E94D1076093C40214
:102AD0007093C5028093C6029093C7021092400380
:102AE00081E02896E2E00C949F31EF92FF921F93D1
:102AF000CF93DF9300D000D00F92CDB7DEB77B012C
:102B000090E080E00E94E930182F882309F487C004
:102B100080910301482F50E0882311F041E050E0FC
:102B200060910401709105016D547D4FCE010596B1
:102B30000E945B324091AB025091AC026091AD02B9
:102B40007091AE022FB7F8948091F7039091F8033B
:102B5000A091F903B091FA032FBF841B950BA60B2C
:102B6000B70B84369105A105B10540F484EB92E0E2
:102B70000E9450069D81891709F451C081E090E0C0
:102B80000E94E93081111AC010E08091A702909153
:102B9000A802A091A902B091AA02F70180839183B3
:102BA000A283B383812F0F900F900F900F900F90FF
:102BB000DF91CF911F91FF90EF90089580910B01CD
:102BC000482F50E0853010F044E050E060910C0157
:102BD00070910D016D547D4FCE0101960E945B32C4
:102BE00084EB92E00E9450069D818913CDCF0E9414
:102BF000D1076093AB027093AC028093AD029093C7
:102C0000AE0289819A81AB81BC818093A7029093A7
:102C1000A802A093A902B093AA0211E0B6CF8091B6
:102C2000B4029091B502A091B602B091B702898327
:102C30009A83AB83BC831111E4CFA7CF1F920F926D
:102C40000FB60F9211242F933F934F935F936F937F
:102C50007F938F939F93AF93BF93EF93FF93809155
:102C6000E10082FF09C08091E20082FF05C08091EF
:102C7000E1008B7F8093E1008091DA0080FF24C027
:102C80008091D80080FF20C08091DA008E7F8093F1
:102C9000DA008091D90080FF9BC080E189BD82E18C
:102CA00089BD09B400FEFDCF81E0809322048091AC
:102CB000FD03811109C00E9467060E9408078091E8
:102CC000E20084608093E2008091E10080FF17C001
:102CD0008091E20080FF13C08091E2008E7F80939C
:102CE000E2008091E20080618093E2008091D80050
:102CF00080628093D80019BC85E080932204809183
:102D0000E10084FF29C08091E20084FF25C080E1BA
:102D100089BD82E189BD09B400FEFDCF8091D80054
:102D20008F7D8093D8008091E1008F7E8093E100B9
:102D30008091E2008F7E8093E2008091E2008160CA
:102D40008093E20080912304882309F447C084E043
:102D500080932204809122048091E10083FF27C0A8
:102D60008091E20083FF23C08091E100877F809300
:102D7000E10082E080932204109223048091E1001C
:102D80008E7F8093E1008091E2008E7F8093E2004D
:102D90008091E20080618093E20042E060E080E0A8
:102DA0000E94D6068091F00088608093F000FF9129
:102DB000EF91BF91AF919F918F917F916F915F91B3
:102DC0004F913F912F910F900FBE0F901F9018952C
:102DD00019BC109222041092FD0376CF8091E3007B
:102DE00087FD02C081E0B4CF83E0B2CF78941F9218
:102DF0001FB61F9211248F939F93AF93BF9380911F
:102E0000F7039091F803A091F903B091FA030196AA
:102E1000A11DB11D8093F7039093F803A093F903CC
:102E2000B093FA03BF91AF919F918F911F901FBEF6
:102E30001F9018959C014FB7F8948091F7039091DB
:102E4000F803A091F903B091FA034FBF821B930BD3
:102E500008952FB7F8948091F7039091F803A0910B
:102E6000F903B091FA032FBF08950E94291720910A
:102E7000340330913503232B21F08093300390935A
:102E800031032091360330913703232B21F08093B7
:102E90002E0390932F03E091F203F091F303309708
:102EA00049F082E0809332030480F581E02D82E3D3
:102EB00093E0099508951092990280914301EEE004
:102EC000F2E0882329F18091FB0387FF21C08EE186
:102ED000DF011D928A95E9F790E080E00E94760874
:102EE00090E080E00E945008109298020E94010D2C
:102EF00086E0E2E3F3E0DF011D928A95E9F71092A4
:102F00002B0310922C0310922D030E943517089565
:102F100086E0DECFAAE2B0E0E0E9F7E10C9482318E
:102F200084E294E0FC0101962091F100208324E0EA
:102F30008C329207B9F780912504893009F456C084
:102F4000C8F4823009F4B3C0833009F482C0813000
:102F500071F18091E80083FF85C2809124049091F3
:102F600025049A3008F07EC2E92FF0E0E65AFA4CC8
:102F70000C94FA318A3009F489C08B3051F7809172
:102F80002404813231F78091280490912904892BFF
:102F900001F78091E800877F8093E8000E94B706E0
:102FA00080912604809343010E945B17D2CF8091C9
:102FB0002404813A71F68091E800877F8093E800CD
:102FC0008091280490912904892B61F460E280E0CB
:102FD00094E070E00E9463078091E8008B77809313
:102FE000E800B7CF60E090E080E0F3CF8091240468
:102FF000813209F0AECF80912804909129048D7F11
:10300000892B09F0A6CF8091E800877F8093E800A4
:103010008091E80082FF18C09091F3008091F20047
:10302000029731F48091F100813011F0863021F463
:103030008091F1008093FF038091E8008B7780936B
:10304000E8000E94B70685CF809122048111E0CF6D
:1030500080CF80912404813A09F07BCF80912804AD
:1030600090912904892B09F074CF8091E800877F23
:103070008093E8008091E80080FFFCCF80914301BD
:103080008093F1008091E8008E77D9CF809124045D
:10309000813209F05ECF8091E800877F8093E8005D
:1030A0000E94B706809127048093FE0352CF80913F
:1030B0002404813A09F04DCF8091E800877F809306
:1030C000E8008091E80080FFFCCF8091FE03D8CF1C
:1030D000803899F0823809F0C5C1809128048F703A
:1030E000873008F0BFC18093E9008091EB0085FB39
:1030F000882780F91092E90006C080912004909101
:103100002104911182609091E800977F9093E800EC
:103110008093F1001092F1008091E8008E779EC1BB
:10312000882309F48CC1823009F09CC18091260467
:1031300081118FC1809128048F702FEF280F2630C6
:1031400008F090C18093E9002091EB0020FF81C13D
:10315000933031F48091EB0080628093EB0079C171
:103160009091EB0090619093EB0021E030E001C082
:10317000220F8A95EAF72093EA001092EA008091E4
:10318000EB008860EACF81116DC1109126041F7792
:103190008091E3008078812B8093E3008091E800A8
:1031A000877F8093E8000E94B7068091E80080FF47
:1031B000FCCF8091E30080688093E30082E01111EE
:1031C00083E0809322044EC18058823008F04AC1C7
:1031D00040912604509127044C3D83E05807A1F507
:1031E00083E08A838AE289834FB7F894DE011396DD
:1031F00020E03EE051E2E32FF0E050935700E491ED
:1032000020FF03C0E295EF703F5FEF708E2F90E0DC
:10321000EA30C0F0C7968D939D932F5F243159F704
:103220004FBF8091E800877F8093E8006AE270E0FA
:10323000CE0101960E9463078091E8008B7780930E
:10324000E80010C1C096E7CF80912804909129042E
:10325000252F33272330310509F44AC078F5213072
:10326000310509F479C08BE590E0E0E9F6E0223021
:10327000310509F0F7C02091E800277F2093E8008E
:1032800020912A0430912B048217930708F49C01A3
:1032900040E02115310509F064C0411162C0809100
:1032A000E80082FDC9CF80912204882329F285306D
:1032B00019F28091E80083FFF2CFBECF21323105B1
:1032C00009F43BC02232310509F0CCC083309105AE
:1032D00008F0C8C0FC01EE0FFF1FE350FE4F019045
:1032E000F081E02D86509E4FDC018C9190E011C062
:1032F000CA019927413089F082309105B1F0892BBC
:1033000009F0B0C0EDE1F7E0E4918E2F90E0EDE13F
:10331000F7E0009709F4A6C0AECFEBE0F7E0E49148
:103320008E2F90E0EBE0F7E0F4CFEDEFF6E0E491E4
:103330008E2F90E0EDEFF6E0ECCF8330910508F0B2
:1033400091C0880F991FFC01ED5FFD4F0190F08146
:10335000E02D89E090E08FCF82E190E0EBEEF6E0A7
:103360008ACF80912204882309F466CF853009F43E
:1033700063CF8091E80083FD5FCF8091E80082FDFC
:103380008ECF8091E80080FF84CF9091F3008091F0
:10339000F2002115310519F08830910550F041E017
:1033A000089709F040E08091E8008E778093E8006C
:1033B00070CF44914093F10031962150310901962C
:1033C000E8CF803809F04EC08091E800877F809375
:1033D000E800809123048093F1009ECE811142C0C9
:1033E000109126041230F0F58091E800877F8093D9
:1033F000E800109323040E94B706112311F084E023
:1034000005C08091E30087FDFACF81E0809322041C
:1034100042E061EC81E00E94D60642E261EC84E089
:103420000E94D60642E261EC82E00E94D60642E2A9
:1034300060EC83E00E94D6068091220413C0809144
:103440002604813079F481E0933009F080E08093A4
:1034500021041092E9008091E800877F8093E800C2
:103460000E94B7068091E80083FF0AC08091E800BF
:10347000877F8093E8008091EB0080628093EB006F
:10348000AA96E3E00C949E311F920F920FB60F9212
:1034900011242F933F934F935F936F937F938F9359
:1034A0009F93AF93BF93CF93DF93EF93FF93D0910D
:1034B000E900DF708091EC00C82FC17080FDC0E88A
:1034C0001092E9008091F000877F8093F00078945B
:1034D0000E948A171092E9008091F0008860809322
:1034E000F000CD2BCF70C093E900FF91EF91DF91F9
:1034F000CF91BF91AF919F918F917F916F915F918C
:103500004F913F912F910F900FBE0F901F901895E4
:103510000E945B172FEF84E39CE021508040904095
:10352000E1F700C0000088E19AE00FB6F894A89592
:10353000809360000FBE90936000FFCF662309F474
:103540005DC08D3C41F40E946E09819580933503E6
:103550000E94351708958E3C19F40E946E09F6CF2B
:103560008F3C31F40E946E09819580933403F0CF33
:10357000803D19F40E946E09F8CF893D29F40E941C
:103580004C0980933603E4CF8A3D21F40E944C0914
:103590008195F7CF8B3D31F40E944C098195809342
:1035A0003703D6CF8C3D19F40E944C09F8CF9FE227
:1035B000980F983070F4815D990B21E030E001C0E4
:1035C000220F8A95EAF780913303822B809333038D
:1035D000BFCF8D3D31F480912D03816080932D0309
:1035E000B7CF8E3D21F480912D038260F7CF8F3DC0
:1035F00009F0AECF80912D038460F0CF4091340369
:103600008D3C59F48091350387FF0DC0109235032E
:1036100041110BC010922B0308C08E3C81F48091A5
:10362000350318169CF3442381F080913603909162
:103630003703892B09F08CCF10922C0389CF8F3C54
:1036400049F447FFF0CF1092340380913503811184
:10365000ECCFE0CF803D19F41416ACF3E4CF909199
:103660003603893D29F41916F4F610923603DBCFA0
:103670008A3D19F497FFD7CFF8CF909137038B3D50
:1036800029F497FFD0CF10923703CDCF8C3D19F49A
:103690001916CCF3C8CF9FE2980F983090F4815D53
:1036A000990B21E030E0B90102C0660F771F8A95BF
:1036B000E2F7CB0180959091330389238093330304
:1036C000B2CF8D3D31F480912D038E7F80932D03F9
:1036D000AACF8E3D21F480912D038D7FF7CF8F3DB2
:1036E00009F0A1CF80912D038B7FF0CF882399F132
:1036F0009CEF980F913A40F4682F8CE092E00E9482
:10370000EE070E94010D089590E2980F983050F452
:10371000877091E001C0990F8A95EAF7892F0E947E
:103720007E0BEFCF9BE5980F933028F490E080E07C
:103730000E947608089598E5980F993128F490E052
:1037400080E00E945008089593E3980F933118F495
:1037500060E00E949E1A0895CF93C82F8823D1F16C
:103760008CEF8C0F813AC0F580914301882311F1D1
:103770008091FB0387FF1EC0EC2FE695E695E6954A
:10378000F0E0E45FFD4F828190E04C2F477021E034
:1037900030E002C0220F331F4A95E2F782239323C1
:1037A000892B89F06C2F8CE092E00E94EE070E943A
:1037B000010D09C0EEE0F2E08191C81799F322E013
:1037C000E431F207C9F76C2F8CE092E00E941A08EE
:1037D0000E94010DCF91089580E28C0F883068F42B
:1037E000C77021E030E001C0220FCA95EAF780914E
:1037F0009902822B80939902EBCF8BE58C0F83305B
:1038000038F42C2F2452330BC9010E947608E2CFE2
:10381000E8E5EC0FE93150F4F0E0EE0FFF1FEF5652
:10382000FE4F808191810E945008D4CF83E38C0F9A
:10383000833180F661E08C2F0E949E1ACBCF0F93CC
:103840001F93CF93C82F10E000E0893311F400E5F7
:1038500010E08C2F0E94AC1B0115110539F48C2F40
:103860000E94761BCF911F910F9108958FE99FE0E1
:103870000197F1F700C0000001501109EDCFFF9250
:103880000F931F93CF93DF93C62FD42F122FFC01DA
:1038900082818823A9F060932E040E9429179093B7
:1038A0002D0480932C04C77081E001C0880FCA9555
:1038B000EAF70E945D0DCDB7DEB7E5E00C949C31D0
:1038C00080912E04681330C080912C0490912D04B7
:1038D0000E941A17883C910538F500E20D0FCD17AC
:1038E000A9F0C770FF24F3948F2D01C0880FCA95EB
:1038F000EAF70E94560D083048F48D2F877001C0FA
:10390000FF0C8A95EAF78F2D0E945D0D812F0E9492
:103910001F1C083080F6D77081E001C0880FDA954F
:10392000EAF70E94560DC7CFC77081E001C0880F2B
:10393000CA95EAF7F6CF0E942E11882319F00E944B
:10394000291708950E946211CB0108956091E50343
:10395000669570E04BE050E080E391E00E944132D8
:10396000892B19F481E080933F030E949B1C909364
:10397000390380933803809140038460809340032F
:103980000895A4E0B0E0E7ECFCE10C948331909161
:10399000E50390FF33C09170811134C09260909321
:1039A000E50380914003816080934003662361F0CA
:1039B0008091E5039091E603A091E703B091E803BD
:1039C000BC01CD010E94EC126091E503669570E0A8
:1039D0004BE050E080E391E00E944132892BC9F036
:1039E0000E94A40881E080933B0320E04091E8031B
:1039F0006091E7038091E6030E9401132496E2E0C0
:103A00000C949F31833210F09464C9CF880F982BA7
:103A1000C6CF0E94A61CE6CF9091E50396958FEF46
:103A2000890F913009F482E261E00E94C11C08957F
:103A30008091E50386958F5F833208F081E061E035
:103A40000E94C11C08959091E50390FF08C09695CF
:103A5000981728F0961718F40E94181D089561E031
:103A60000E94C11C0895ACE0B0E0E9E3FDE10C94D4
:103A700075318C01DC0113968D919C911497892BE3
:103A800039F08C9111969C9189238F3F09F0ADC537
:103A90002C96E0E10C9491310E946B12F82E682F65
:103AA00089819A810E94C40B69817A818F2D0E943D
:103AB0005D127C01F8018281882309F446C5C701A3
:103AC00082509747409708F04CC58FEF93E00E94D3
:103AD0001035811185C0EA94EA9456EAA52EBB24DC
:103AE000B394E11049C01A821982FE01339686E030
:103AF000DF011D928A95E9F74AE0442E6501BFEF88
:103B0000CB1ADB0AC5010E94103589831A828823EB
:103B100009F466C0813009F076C07501E2E0EE0E6E
:103B2000F11CC6010E9410358A83882309F458C00D
:103B30009FEF980F933070F5F3E0AF0EB11CC70103
:103B40000E9410358B83882309F44AC01C82DE0151
:103B500011967D01F7012081222381F2213009F0A5
:103B600092C091818281913009F04FC0F2E0EF0E56
:103B7000F11C0E941F1C50C0A114F4E0BF0681F18B
:103B8000C5010E941035811101C0EA942FEFA21ADD
:103B9000B20AA7CF8430D9F432E0C32ED12CC701AA
:103BA0002FEFE21AF20A0E941035E1E0F0E0EC0F8C
:103BB000FD1FEC0DFD1D8083882391F08C3749F4A7
:103BC000E2E0F0E0EC0FFD1FEC0DFD1D108257014F
:103BD000BECF3FEFC31AD30A87E0C816D104F9F667
:103BE00080917702877009F453CFD80112968C9197
:103BF000882309F44DCF8091FC0382FF49CF82E0F6
:103C00000E94160C45CF5601A2CF923049F422E013
:103C1000E20EF11C0E94AC1BEFEFEE1AFE0A9ACFE7
:103C2000933031F432E0E30EF11C0E94761BF4CFA6
:103C3000943021F08FEFE81AF80AEECF92E0E90E07
:103C4000F11C30E020E0B7016F5F7F4FD701119684
:103C50004C918053990B8A30910550F021503109D5
:103C6000D8F2EFE9FFE03197F1F700C00000F6CF9E
:103C7000429EF001439EF00D11249C012E0F3F1F28
:103C8000842F7B01E0CFE22FF0E0EC50FE4F549008
:103C9000822F86958695869590E0FC01EC51FE4F2B
:103CA00064902770712C022E02C0759467940A9458
:103CB000E2F731E063227724FC01EC52FE4F84905E
:103CC000912C022E02C0959487940A94E2F7A1E009
:103CD0008A229924FC01EC53FE4FC490D12C02C0DF
:103CE000D594C7942A95E2F7B1E0CB22DD24611484
:103CF000710419F081EE0E94AC1B8114910419F03B
:103D000086EE0E94AC1B852D0E941F1C811491041D
:103D100019F086EE0E94761B6114710419F081EE91
:103D20000E94761BCD2809F477CF8CE222CF81E068
:103D30000E94320C0E94FD0B53CF81E00E94090CBF
:103D4000F9CF82E0F5CFC7011FC426E241EE61EE54
:103D5000C8010E943F1C44CF27E245EE65EEF8CF34
:103D600026E241EE60EEF4CF27E245EE64EEF0CFBE
:103D700026E241EE62EEECCF27E245EE66EEE8CFBA
:103D800028E241E0EBCFD80112968C91882309F408
:103D900056C410922E04C7019057839708F038C478
:103DA00084E090E00E941E359093FC038093FB0317
:103DB000F701E150F047E232F10520F4EC59FA4CFA
:103DC0000C94FA318091FB0381608093FB03609136
:103DD000FB037091FC0384E090E00E9442350E9456
:103DE0005B17FECE8091FC0388608093FC03EFCFCD
:103DF0008091FB038260E9CF8091FB038460E5CF73
:103E00008091FB038860E1CF8091FC038160EDCF5E
:103E10008091FC038260E9CF8091FB038061D5CF64
:103E20008091FB038062D1CF8091FB038064CDCF72
:103E30000E945B178091FB038068C7CF8091FB03D2
:103E40008C60C3CF8091FC038360CFCF8091FB0354
:103E50008E7FBBCF8091FC03877FC7CF8091FB0310
:103E60008D7FB3CF8091FB038B7FAFCF8091FB031E
:103E7000877FABCF8091FC038E7FB7CF8091FC030F
:103E80008D7FB3CF8091FB038F7E9FCF8091FB030B
:103E90008F7D9BCF8091FB038F7B97CF0E945B1719
:103EA0008091FB038F7791CF8091FB03837F8DCF30
:103EB0008091FC038C7F99CF8091FB0382FB992733
:103EC00090F921E0922790FB82F990FB83F97DCF56
:103ED0008091FC03982F909591708E7F892B90FB99
:103EE00081F983CF9091FB03892F8F7B96FF8064AC
:103EF0006CCF0E945B179091FB03892F97FB87F98A
:103F0000805863CF61E08EE090E00E9424355FCF5F
:103F100060E0F9CF9091FB03892F8F7E94FF806141
:103F200054CF9091FB03892F8E7F90FF81604DCFFE
:103F30009091FC03892F877F93FF886056CF8091F3
:103F40002C0269E2811165E38CE092E00E94EE07A9
:103F500073C38091E50380FF1DC08E7F8093E503CE
:103F60008091E5039091E603A091E703B091E80307
:103F700089879A87AB87BC87BC01CD010E94EC1270
:103F80000E94A408809140038160809340030E94B6
:103F9000510E26CE81608093E50361E086950E94F4
:103FA000C11C1ECE4CE05DE168E17DE10E949C08F1
:103FB00017CE48E15DE16CE07DE1F8CF46EC53E1DE
:103FC00060ED73E1F3CF40ED53E166EC73E1EECFCA
:103FD0004CEA53E169EB73E1E9CF49EB53E16CEA59
:103FE00073E1E4CF42E953E16FE973E1DFCF4FE9D9
:103FF00053E162E973E1DACF4AED53E167EF73E130
:10400000D5CF47EF53E16AED73E1D0CF61E081E0B6
:10401000C6CF65E082E00E94231DE2CD68E086E025
:10402000FACF6EE089E0F7CF64E18FE0F4CF67E18B
:1040300085E1F1CF61E088E1B2CF62E289E1EBCFC7
:104040009BE5E9169CE7F90608F05BC0A1E0EA16DB
:10405000ACE7FA0609F47DC0B3E0EB16BCE7FB065B
:1040600009F471C0E114ECE7FE0609F45FC0F80141
:104070008281C080D180882309F46FC0C6010E946C
:104080006B12F82E682FC6010E94C40BB6018F2D4B
:104090000E945D120E94EC097C01782ED8011296D4
:1040A0009C90129715968C9082942FE0822280919A
:1040B00077028770C1F0C92C9920B1F08F2D807FD5
:1040C000803421F080E28E0D883068F08091FC030E
:1040D00082FF09C082E00E94160C809177028770EF
:1040E000CC24C3948111C12C8F2D82958F70A82E62
:1040F000B12C8C3008F0A1C0F501EA57FA4C0C94B1
:10410000FA31FBE5EF16FCE7FF0629F12CE5E21694
:104110002CE7F20609F0ABCF8091FC0382FB8827E5
:1041200080F991E089270E949A14A1CF0E945B1721
:104130003FEF84E39CE0315080409040E1F700C0C5
:1041400000000E94C0076FEF7FEF90E080E00E94C8
:1041500042350E94881A80E0E6CFC6010E94900B8B
:10416000F82E94CFBF2DBF70DB2E8F2D807F19F0DE
:10417000D29490EFD9228E2D9920B9F0DD2069F0EC
:1041800090E29E0D983010F0E11009C080919902E4
:10419000D82AD09299020E94010D8E2D4CC0809198
:1041A0009802D82AD0929802F6CF0E94761BDD2082
:1041B00009F443C080E28E0D883010F0711004C005
:1041C0008D2D0E947E0B06C0D09480919802D8223B
:1041D000D09298020E94010D30C0EF2DEF70DE2EBC
:1041E0008F2D807F803219F0D29480EFD8228E2DCF
:1041F000772089F0F1E07F1609F46FC0992009F467
:1042000079C0882009F46FC0F801858180FFC5CF8F
:104210008F70858368C02091FC0322FD37C09920F0
:1042200079F1DD2039F080919902D82AD092990253
:104230000E94010D80E00E94AC1B38E0A31AB10877
:1042400084E0A816B10410F40E945111CC2009F4A6
:104250001FCC8091770280FD1BCCD80112961C9256
:104260008595859585950E94320CC8010E94331D65
:10427000809177028595859585950E94090C08CCDB
:1042800080E00E94761BDD20C1F29ACF992099F040
:1042900090919A02892F8D29811003C00E945D0D93
:1042A000CCCF31E08312FACF22FFC7CF981729F283
:1042B00080939A02C2CF811006C00E94780B8D2D88
:1042C0000E94560DBACF81E0881609F4B6CF8D2D25
:1042D0000E94560D0E94780BB0CF992031F095E0E6
:1042E000981508F4AACF8D2DD9CFA4E0A81508F40D
:1042F000A4CFE5CF882019F3893349F4FFEF27EEE7
:1043000033E0F15020403040E1F700C000008E2D36
:104310000E94761B92CF8F2D86958695837061F0D3
:10432000813009F08ACFC7019370911002C080E0FC
:1043300090E00E94500881CFC7019370911002C095
:1043400080E090E00E94760878CF692D8E2D0E9443
:104350009E1A73CF8F2D837099F591106ECF4E2DCD
:10436000429546954770440F440F8E2D8F70042E52
:1043700001C0880F0A94EAF72E2D2071E4FE07C0D1
:104380002FE030E001C0220F4A95EAF720953F2D3B
:10439000369536953370323071F0333051F04091AC
:1043A0009B02313029F0822B84230E943E0C45CFA2
:1043B000842B822BFACF282B80919B028227F5CF6A
:1043C0008695992011F08F2D8170882309F435CFBF
:1043D0004E2D429546954770440F440F8E2D8F7099
:1043E000042E01C0880F0A94EAF72E2D2071E4FEF6
:1043F00007C02FE030E001C0220F4A95EAF7209570
:104400003F2D369536953370323071F0333051F0A0
:1044100040912F04313029F0822B84230E94FA0B23
:104420000CCF842B822BFACF282B80912F0482274C
:10443000F5CF8F2D8F70F82E992021F00E94320C2D
:104440008E2D2CCF8E2D0E94560D8F2D0E94090C83
:10445000F4CE8E2D92EF7916B1F1971570F0A0EF92
:104460007A16D1F0B1EF7B1691F0992009F45DC076
:10447000811093CE8F2D8F712AC0E3EF7E1651F1FC
:10448000F4EF7F12F2CF8091FC0382FD2FC08F2DBD
:104490008F719920D9F21BC0992081F024E0281552
:1044A00008F4CBCE2F2D2F7181E090E001C0880F52
:1044B0002A95EAF790912F048927B0CF35E0381577
:1044C00008F4BBCEEFCF8F2D8F719110BFCF0E941C
:1044D000320CB3CE80E0992009F4A0CF9F2D9F71BC
:1044E00081E001C0880F9A95EAF798CF992091F062
:1044F0008F2D8F71F82E0E94320C8091FC0382FF69
:1045000007C0A8E0FA9EC00111248360809377025F
:104510008F2DDDCF81E00E94160CB1E0B81508F0B8
:104520008CCE82E00E94160C88CE882059F0893308
:1045300009F0EDCEEFEFF7EE23E0E150F040204040
:10454000E1F7E3CE8F2D8F7181CFE114B7E7FB0642
:1045500009F4F3CBE1E0EE16E7E7FE06D9F582E0D9
:10456000EDCBE114F7E7FF0609F4E1CB21E0E21619
:1045700027E7F20609F4E5CBC70190528115904375
:1045800008F0E1CBC701992720E28C33910520F494
:10459000FC01EB5AFE4F20811F922F939F938F9324
:1045A000D8018C911F928F9311968C911F928F93AB
:1045B00084E491E09F938F931F9288E18F9386EE1E
:1045C00092E09F938F930E9464320FB6F894DEBFFF
:1045D0000FBECDBFF701E851FC47E730F10508F009
:1045E000D2CBEE56FA4C0C94FA3185E0F801DE019C
:1045F000119601900D928A95E1F7D80112962C91AF
:1046000089819A81211148CA0E94900BF82E4CCAC8
:10461000B6E1EB16BCE7FB0631F5809199028A7A88
:1046200091E009F490E090932C0269E2811165E336
:104630008CE092E00E941A080E94010DD1CAE6E1C6
:10464000EE16ECE7FE0609F47ACC809199028272AC
:10465000F701E052F847E531F10508F008CDE756DB
:10466000FA4C0C94FA31FAE5EF16FCE7FF0609F074
:10467000E7CC81E058CD1F93CF93DF938091440224
:10468000807F09F049C080914102882309F444C029
:1046900080917602D091450260913F027091400274
:1046A000A0914202B0914302C62FC72316E0D8174B
:1046B00099F190E0109711F0CF3F19F401968770AF
:1046C000F6CF189F9001199F300D1124F901EA5B74
:1046D000FD4F41814713F2CF40814613EFCF428116
:1046E0004111ECCF438154814A1B5B0B483C51057F
:1046F00028F7809144028F70806180934402F90111
:10470000E55BFD4F80818F70806180838FE392E055
:104710000E94331D0E94860BDF91CF911F91089557
:10472000ABE0B0E0E6E9F3E20C947B318C0185E08C
:10473000F801DE01179601900D928A95E1F7F801D4
:10474000E2808FE3A82E82E0B82E60914202709141
:1047500043026115710509F40EC190913F02409129
:104760004002842F89238F3F09F405C120813181C4
:10477000C380D480F0904102F601E61BF70BFF20C6
:1047800009F4C4C080914402582F507FE83CF105E1
:1047900008F09FC051116BC0FE2C431314C092133C
:1047A00012C0E11010C08F70806180934402C50177
:1047B0000E94331D80914402F80185838F2D2B9632
:1047C000EAE00C949731C114D10429F0822F83239D
:1047D0008F3F09F0EBC080E0F82FF170DF2EE09101
:1047E00076024091450256E080FD1CC0EE2031F378
:1047F00080914402816080934402F12CDFCF8E2FA0
:1048000090E05E9FF0011124EA5BFD4F6181361359
:1048100006C06081261303C06281E612E7CFFC0167
:104820003196E770E413EBCF2F8338878F8198851B
:104830000E949612292F22952F70903260F0225FED
:104840002F70223078F49F7051F0F8019581907F9D
:1048500031F4D12C0AC09F7011F08823D1F3805E0F
:104860008830B8F3C8010E94331DFD2CA7CF431335
:1048700006C0921304C0F801EE2009F461C0C8011B
:104880000E94A512882309F1EE20F9F080914402DC
:10489000803270F020913F02309140023A832983A8
:1048A0001B82DD82CC828E83CE0101960E94331D55
:1048B00086E0F801AFE3B2E001900D928A95E1F74E
:1048C0000E943B23FF24F39479CFC8010E94331D3B
:1048D000F9CF51110AC08FE392E00E94331D86E0A8
:1048E000F50111928A95E9F788CF4313C8CF921347
:1048F000C6CFE110C4CFF8018583C8010E94331DE3
:1049000086E0F50111928A95E9F758CFE83CF10568
:10491000B8F7FE2CEE20C9F243131FC092131DC03E
:104920008091440280FD10C0982F907F69F0F801BB
:104930008583903F31F0982F907F905F8F70892B07
:104940008583C8010E94331D86E0F801AFE3B2E021
:1049500001900D928A95E1F731CFC8010E94A5120E
:104960008111A6CF80914402816080934402C801E6
:104970000E94331D23CFEE2009F4A7CFC8010E9467
:10498000A512F82E882309F4A0CF86E0F801AFE342
:10499000B2E001900D928A95E1F780913F029091EB
:1049A00040020E9496120E943B2308CF81E08E2590
:1049B00013CFA7E1B0E0EFEDF4E20C9482314B8B22
:1049C0005C8B6D8B7E8B8F8B6111109298021A8A93
:1049D0002C898E899F893B893D872E876F87998B8C
:1049E000888B86E0FE013D96DE01179601900D92C0
:1049F0008A95E1F7CE0107960E949023882359F00B
:104A000016E08091760290914502891349C067961D
:104A1000E3E00C949E3186E0FE013796DE011196AC
:104A200001900D928A95E1F74A855B854115510504
:104A300039F37F816885862F87238F3F09F3209183
:104A4000450230E0C901019687709927E09176020E
:104A5000E817190671F40E945B1710924502109234
:104A6000760286E0EFE3F2E0DF011D928A95E9F736
:104A7000C7CF79836A835D834C8396E0929FD00190
:104A8000939FB00D1124AA5BBD4FFE01319601909A
:104A90000D929A95E1F7809345020E94860BB0CF64
:104AA000819FC00111248A5B9D4F0E94902388231F
:104AB00009F4ADCF8091760290E001968770992736
:104AC000809376029ECFA4E1B0E0E9E6F5E20C9493
:104AD00079311A861986FE013B9686E0DF011D9228
:104AE0008A95E9F785ECE82E81E0F82E10E000E0E9
:104AF000CC24C394D12C2FECA22E21E0B22EF701AE
:104B000081917F018F3F09F445C0F894E82FE29529
:104B1000EF70F0E021A18F70A60102C0440F551F75
:104B20008A95E2F7CA01922F982B91A392A18095C2
:104B3000892382A3789400C0E9ECF1E031E0912C64
:104B400021912F3F09F470C0A22FA295AF70B0E061
:104B500090968C9190E02F7002C0959587952A953C
:104B6000E2F780FD61C0832F982A330FAE16BF068F
:104B700039F7F701319780818F3F11F00E9490093A
:104B800050EA5A95F1F7E9E0F0E0EC0FFD1FE00F75
:104B9000F11F90820F5F1F4F0430110509F0AFCF56
:104BA00048E050E0BE01675F7F4F8DEC92E00E94CD
:104BB0004E329C01892B49F088E0FE013996ADEC1C
:104BC000B2E001900D928A95E1F70091D602232B75
:104BD00069F181E080939E020E94291790939D02C3
:104BE00080939C0280919C0290919D020E941A17D2
:104BF000059700F110E00D5D1C4F44E050E06DECB6
:104C000072E0C8010E944E32E12C892B51F084E001
:104C1000EDECF2E0D80101900D928A95E1F7EE24D7
:104C2000E39410929E0207C080E09ECF80919E0286
:104C30008111D8CFE12C0E942E11F82EE091D602DE
:104C4000882309F47DC01A8219821C821B820E2FD0
:104C500010E00D5D1C4F8091C8028A30D8F545E701
:104C600055E1BE016F5F7F4FC8010E94F510882398
:104C700009F455C04DEB54E1BE016F5F7F4FC80191
:104C80000E94F510882309F44AC044E155E1BE01B1
:104C90006F5F7F4FC8010E94F510882309F43FC061
:104CA0001092C8028091D50290E044E050E0BE012D
:104CB0006F5F7F4F8D5D9C4F0E944E3221E02093AD
:104CC000A502892BF1F4F12C8F2D8E296496ECE04E
:104CD0000C94953180919F029091A0020E941A1726
:104CE000843F914008F0BBCF8091A502882359F3FF
:104CF00084E0FE013196DF011D928A95E9F710925A
:104D0000A502E091D502F0E0ED5DFC4F89819A812A
:104D1000AB81BC8180839183A283B383D5CF809103
:104D2000C8028F3F31F08F5F8093C8028A3008F449
:104D3000B9CF0E9429179093A00280939F02D4CFED
:104D4000F0E0ED5DFC4F80819181A281B381809381
:104D5000B4029093B502A093B602B093B70284EB6D
:104D600092E00E9450068093B3028090B802909027
:104D7000B902A090BA02B090BB028091A1029091BA
:104D8000A202A091A302B091A40288169906AA06D5
:104D9000BB06D1F08092A1029092A202A092A3023F
:104DA000B092A4020E942E1181110EC00E94D10760
:104DB000861A970AA80AB90A8092C9029092CA0272
:104DC000A092CB02B092CC0288E0ECEBF2E0DE01E4
:104DD000119601900D928A95E1F78091BC0286951B
:104DE000D090BD02C090BE02B090BF020091C2023E
:104DF0001091C3021092C302112309F465CF10FF72
:104E000010C099819170282F220F922B998390FFC7
:104E10001CC09091E50391609093E50360E00E94CF
:104E2000C11C11FF06C020E04B2D6C2D8D2D0E9462
:104E3000011312FF04C0002359F00E94A61C13FFA7
:104E400043CF81E080933B033FCF0E94E610E9CF40
:104E50000E94A408F4CF1F921FB61F9211248F93B3
:104E60009F93AF93BF938091F603811113C08091FC
:104E7000F7039091F803A091F903B091FA034196DA
:104E8000A11DB11D8093F7039093F803A093F9033C
:104E9000B093FA03BF91AF919F918F911F901FBE66
:104EA0001F901895CDB7DEB7A4970FB6F894DEBF64
:104EB0000FBECDBF85B7806885BF85B7806885BFC9
:104EC00084B7877F84BF0FB6F894A895809160005F
:104ED000886180936000109260000FBE80E890E0CF
:104EE0000FB6F89480936100909361000FBE8EE836
:104EF00099E090930B0280930A020E9467060E9439
:104F000008078091E20084608093E20078948091A9
:104F100022048823A1F01091E9001F709091EC0009
:104F2000892F817090FD80E8182B1092E900809104
:104F3000E80083FD0E948A171F701093E90082E049
:104F400084BD93E095BD9AEF97BD80936E0010925B
:104F5000C9021092CA021092CB021092CC020E9497
:104F6000D312811102C00E941E120E942E11809342
:104F7000200180912001882309F472C010923E0123
:104F80008BE180933F010E942E1181110E94FC2F22
:104F9000809120018091200194E0811190E0909314
:104FA000D60284E0891B8093D50284E90E9490098F
:104FB00086E60E94900987E90E94900986EC0E948B
:104FC000900909EC11E03FECE32E31E0F32ED8011B
:104FD0008D918D018F3F11F00E949009E016F1062E
:104FE000B1F788E0E3E2F3E0DF01282F1D922A9574
:104FF000E9F7EDECF2E0DF011D928A95E9F70E94F6
:10500000B114811102C00E94381482E090E00E9425
:1050100010358093DA0284E090E00E941E35909370
:10502000FC038093FB030E946325EFE3FCE93197C7
:10503000F1F700C000000E9463250E942E11E4E0F9
:105040008111E0E0F0E0ED5DFC4F808181FF0CC05C
:105050006FEF7FEF90E080E00E9442350E94C00732
:105060008BE180933E018DCF83E090E00E9410356C
:105070000E943E0C0E942E118111F2C082E08093AA
:105080001E0380E8809330040E94A62E6DE070E03D
:1050900087E892E00E94670D892B09F043C0809158
:1050A0001E0363E070E081FDDDC084E892E00E94B1
:1050B000670D892BB9F56DE070E084E792E00E94FE
:1050C000670D892B79F50E94D10769A37AA38BA379
:1050D0009CA3DC01CB01805A9541AF4FBF4F809319
:1050E000EA039093EB03A093EC03B093ED03E3E3A7
:1050F000F4E080E092E0DF019C011D9221503040FD
:10510000E1F7F0933A06E09339068FEF9FEF909323
:1051100032048093310481E08093EF038093EE03A7
:1051200010921F038091D702811138C00E94B114E0
:10513000811104C00E9438140E94141488E090E089
:105140000E9418356093E5037093E6038093E703AC
:105150009093E803809140038360809340036E7FC7
:1051600071F40E94141488E090E00E941835609356
:10517000E5037093E6038093E7039093E8030E94AE
:10518000AB080E94A4088091E50380FF04C060E0A2
:1051900086950E94C11C81E08093D7020E942E1147
:1051A000811102C00E94FF2F81E291E09093F303EE
:1051B0008093F2038091220400E112E1853009F42A
:1051C0008EC00E9463259BEDE92E92E0F92E23E22A
:1051D000C22E23E0D22ED601F70191918D9123EEBC
:1051E00032E02E173F0709F484C09817B1F30E94EC
:1051F0002E11882E10E0D6010D916D01F7019190CE
:105200007F01901629F19026B12CAA24A394892D10
:105210008A21B1F08820A1F0B9821A8391E0802F11
:105220008A2109F490E09B830E9429178160782FDE
:105230009D838C8349815A816B818D810E94D92401
:10524000B394AA0CF6E0BF12E2CFF70131970083C6
:105250001F5F183081F60E94D107DD24D3946AC005
:1052600080E00DCF81E892E022CF8091220484304B
:1052700031F10E94910D1092F60348E150E080E474
:105280000FB6F894A895409360000FBE809360001D
:1052900083B7817F846083BF83B7816083BF789445
:1052A000889583B78E7F83BF0FB6F894A8958091B9
:1052B0006000886180936000109260000FBE809152
:1052C0002104882361F00E946325E3E2F3E08191E9
:1052D000811113C5ABE2B3E0AE17BF07C1F78091F0
:1052E0002204853009F4C1CF0E945B170E9451113E
:1052F00068CF98137CCF0E9429178C018091D80227
:105300009091D90208171907A1F08FEF89838A833A
:105310001B820E9429178160782F9D838C8349818D
:105320005A816B818D810E94D9241093D9020093F8
:10533000D802D12C0E942E1180913F03882309F4BA
:1053400064C080913E03E091E503E695E81BE0939D
:105350003A03823009F086C0F0E0E056FD4FE49158
:105360000E2F10E082EDE82E80E1F82E80913B03B5
:10537000882361F010923B030E949B1C9093390399
:105380008093380310923D0310923C030E949B1CB3
:105390009C01E0913803F09139038E1B9F0B8F3FE6
:1053A0009F4798F58091E5028823B1F01092E502BD
:1053B0008091E3029091E402281B390B2F3F3F4775
:1053C00058F4805D9A489093E4028093E3028091C0
:1053D0004003886080934003A0903C03B0903D035D
:1053E000E00FF11FF0933903E093380388E393E073
:1053F000F701099580913C0390913D03892B29F495
:10540000AB2819F081E08093E5028091EF038823B7
:1054100009F4B0C080912003909121030E941A17D3
:10542000C29708F47DC00E942917909321038093AE
:10543000200383E394E090933A06809339060E9418
:105440002E11882309F4ADC18FEB92E00E94C10CAC
:10545000E0912F04EF3008F052C0F0E0E255FA4C32
:105460000C94FA31863059F4F0E0E356FD4FE491A4
:105470000E2F10E0B2ECEB2EB0E1FB2E77CF89308F
:1054800061F4E695F0E0E656FD4FE4910E2F10E052
:10549000AEE4EA2EA0E1FA2E69CF8F3061F4E695F2
:1054A000F0E0E956FD4FE4910E2F10E0F2ECEF2E04
:1054B000FFE0FF2E5BCF853159F4F0E0EC56FD4F55
:1054C000E4910E2F10E0E6E3EE2EEFE0FE2E4ECF3D
:1054D00008E210E07CE9E72E7EE0F72E883109F43F
:1054E00045CF00ED17E063EAE62E68E0F62E3ECFEA
:1054F00087EB92E00E94C10C81E00E94CF0C06EE87
:1055000012E0D8010D900020E9F78D01015011093A
:1055100056EEE52E52E0F52EE016F10608F43BC1FA
:105520008091310490913204892B09F03FC1809120
:10553000EE038823F9F00E94D10769A37AA38BA315
:105540009CA38091EA039091EB03A091EC03B091AE
:10555000ED0329A13AA14BA15CA1281B390B4A0BF1
:105560005B0BDA01C9018F3F9F4FAF4FBF4710F46C
:105570000E94910DD1100E94AC0D86E0E2E3F3E0B1
:10558000DE01119601900D928A95E1F71092340395
:105590001092350310923603109237038B819C8151
:1055A000892B09F44AC080913003909131030E9405
:1055B0001A179C0180912B03882309F4C2C325315B
:1055C0003105D8F18F3F19F08F5F80932B031B813A
:1055D000112359F00E946E099FEF11160CF491E00F
:1055E000899F802D1124809334031C81112359F04D
:1055F0000E946E099FEF11160CF491E0899F802D97
:10560000112480933503309134033323B1F020917A
:105610003503222391F045EB3403C0011124992373
:1056200009F4A5C19093340355EB2503900111248F
:10563000332309F4A0C1309335038D819E81892BDA
:1056400009F44AC080912E0390912F030E941A17EB
:105650009C0180912C03882309F46EC32135310508
:10566000D8F18F3F19F08F5F80932C031D81112398
:1056700059F00E944C099FEF11160CF491E0899F9C
:10568000802D1124809336031E81112359F00E942E
:105690004C099FEF11160CF491E0899F802D112485
:1056A00080933703309136033323B1F020913703D1
:1056B000222391F045EB3403C0011124992309F40E
:1056C0005EC19093360355EB2503900111243323DB
:1056D00009F459C13093370346E050E0BE016F5FD3
:1056E0007F4F82E393E00E944E32892B61F48091D8
:1056F000340390913503892B90913603892B909137
:105700003703892B11F00E94351786E0FE01319690
:10571000A2E3B3E001900D928A95E1F70E94511146
:1057200090912203891721F0809322030E94D107D0
:1057300080912204843009F03DCD83E08093E9001C
:105740008091E80082FF36CD8091E80090E085FFEF
:1057500006C00E948606882309F419C191E0809151
:10576000E8008B778093E800992309F423CD8981A1
:10577000EFEFE80FE33108F035C1F0E0E354FA4C05
:105780000C94FA3181EB92E0B5CE8BEA92E0B2CE86
:1057900084EA92E0AFCEF70181917F010E94410C33
:1057A000BBCE87EC92E00E94C10CBACE8091EF0391
:1057B000882309F4BCCE80911F038111B8CE0E94CA
:1057C000AC0D20913104309132042115310509F4DA
:1057D000AECE80E041E050E0082F10E07A01082EC4
:1057E00002C0EE0CFF1C0A94E2F7B7016223732398
:1057F000672B11F48F5FF0CF90911E0390FF9EC036
:10580000880F880F880F80932B0110922E01895FDB
:1058100080932C0183E080932F0124E630E047E061
:1058200050E069E271E088E70E944C2F892B09F073
:105830007ECEA80135E0440F551F3A95E1F78091DF
:105840001E0380FF8DC0EEEFF2E080E2DF011D92CB
:105850008A95E9F7E3EDF1E0FAA3E9A30FEC11E093
:1058600097ED292E91E0392E27E0922E88248394FB
:10587000A9A1BAA12D91BAA3A9A3F80141908F01C2
:10588000440E552E511CC2018D5C9B4F2C01E22F02
:10589000F0E0E250FD4F30E020E0692C621AC82CA5
:1058A000022E01C0CC0C0A94EAF7520190E0D50117
:1058B0008D915D018C21662D691B6770762E062EF9
:1058C000000C770BB82F01C0BB0F7A94EAF77B2E40
:1058D0007195619571096770772701C086956A9502
:1058E000EAF7782A8081782A70829F5F9830F9F6EB
:1058F0002F5F3F4F31962830310579F6E9A1FAA1A3
:105900002E163F0609F0B4CF04E610E020E230E0A6
:105910004EEF52E060E488E70E94732F892B09F074
:1059200006CEE094F0948091310490913204E82204
:10593000F922F0923204E0923104F9CD8295880F79
:10594000807680932B01980136952795369527957B
:1059500020932E01815E80932C0110922F015DCF48
:105960004D5C5B4F04E610E020E230E0D3CF81E0F5
:105970008093340359CE81E0809335035ECE81E07D
:1059800080933603A0CE81E080933703A5CE80E2DA
:10599000E82EF12C8E010F5F1F4F8091E80085FDEE
:1059A0000AC08091E8008B778093E8000E94860609
:1059B000882399F3D3CE8091F100D8018D938D0186
:1059C000B1E0EB1AF10849F7C9CE1A828BE08B835C
:1059D0001BC08A81833009F140F4813069F0823044
:1059E00009F4A1C18FEF89830FC08430D9F71B82DE
:1059F0001C821D821E8208C00E94D1070E940032B4
:105A00006B837C838D839E8340E250E0BE016F5F99
:105A10007F4F82E00E94E00DCDCB809123038B83EA
:105A2000809124038C83809125038D8380912603AC
:105A30008E83809127038F838091280388878091AC
:105A40002903898780912A038A87DECF8A81823061
:105A500049F0853039F68091E50380FF14C00E943B
:105A6000E610D2CF2B813C814D815E8129A33AA3E0
:105A70004BA35CA3CA01B9010E94003285E290E009
:105A80000E942435C1CF81608093E50360E0869554
:105A90000E94C11CB9CF4C816B818A810E942E1259
:105AA0009827892798279E838D83AECF2D813E81AD
:105AB0003227232732274C816B818A810E94A511CE
:105AC000A3CF0E94CC11A0CF9A81923009F08ACF47
:105AD0008830D9F1893009F463C08B81833089F132
